{
  "contractName": "Task",
  "abi": [
    {
      "constant": true,
      "inputs": [
        {
          "name": "",
          "type": "uint256"
        }
      ],
      "name": "requesterAddress",
      "outputs": [
        {
          "name": "",
          "type": "address"
        }
      ],
      "payable": false,
      "stateMutability": "view",
      "type": "function"
    },
    {
      "constant": true,
      "inputs": [
        {
          "name": "",
          "type": "uint256"
        }
      ],
      "name": "requesters",
      "outputs": [
        {
          "name": "username",
          "type": "string"
        },
        {
          "name": "pwd",
          "type": "string"
        },
        {
          "name": "accountBalance",
          "type": "uint32"
        }
      ],
      "payable": false,
      "stateMutability": "view",
      "type": "function"
    },
    {
      "constant": true,
      "inputs": [
        {
          "name": "",
          "type": "uint256"
        }
      ],
      "name": "workerStatus",
      "outputs": [
        {
          "name": "",
          "type": "uint256"
        }
      ],
      "payable": false,
      "stateMutability": "view",
      "type": "function"
    },
    {
      "constant": false,
      "inputs": [
        {
          "name": "_name",
          "type": "string"
        },
        {
          "name": "_pwd",
          "type": "string"
        }
      ],
      "name": "_createRequester",
      "outputs": [
        {
          "name": "",
          "type": "uint256"
        }
      ],
      "payable": false,
      "stateMutability": "nonpayable",
      "type": "function"
    },
    {
      "constant": true,
      "inputs": [
        {
          "name": "",
          "type": "uint256"
        }
      ],
      "name": "tasks",
      "outputs": [
        {
          "name": "requesterId",
          "type": "uint256"
        },
        {
          "name": "taskDuration",
          "type": "uint32"
        },
        {
          "name": "expRequired",
          "type": "uint256"
        },
        {
          "name": "expAwarded",
          "type": "uint256"
        },
        {
          "name": "reward",
          "type": "uint256"
        },
        {
          "name": "postTime",
          "type": "uint256"
        }
      ],
      "payable": false,
      "stateMutability": "view",
      "type": "function"
    },
    {
      "constant": false,
      "inputs": [
        {
          "name": "_name",
          "type": "string"
        },
        {
          "name": "_pwd",
          "type": "string"
        }
      ],
      "name": "_createWorker",
      "outputs": [
        {
          "name": "",
          "type": "uint256"
        }
      ],
      "payable": false,
      "stateMutability": "nonpayable",
      "type": "function"
    },
    {
      "constant": true,
      "inputs": [
        {
          "name": "",
          "type": "uint256"
        }
      ],
      "name": "workers",
      "outputs": [
        {
          "name": "username",
          "type": "string"
        },
        {
          "name": "pwd",
          "type": "string"
        },
        {
          "name": "expPts",
          "type": "uint32"
        },
        {
          "name": "accountBalance",
          "type": "uint32"
        }
      ],
      "payable": false,
      "stateMutability": "view",
      "type": "function"
    },
    {
      "constant": true,
      "inputs": [
        {
          "name": "",
          "type": "uint256"
        }
      ],
      "name": "workerAddress",
      "outputs": [
        {
          "name": "",
          "type": "address"
        }
      ],
      "payable": false,
      "stateMutability": "view",
      "type": "function"
    },
    {
      "constant": false,
      "inputs": [
        {
          "name": "_requesterId",
          "type": "uint256"
        }
      ],
      "name": "generateTask",
      "outputs": [],
      "payable": false,
      "stateMutability": "nonpayable",
      "type": "function"
    },
    {
      "constant": false,
      "inputs": [
        {
          "name": "taskId",
          "type": "uint256"
        },
        {
          "name": "_workerId",
          "type": "uint256"
        }
      ],
      "name": "applyTask",
      "outputs": [],
      "payable": false,
      "stateMutability": "nonpayable",
      "type": "function"
    },
    {
      "constant": false,
      "inputs": [
        {
          "name": "taskId",
          "type": "uint256"
        },
        {
          "name": "_requesterId",
          "type": "uint256"
        },
        {
          "name": "_workerId",
          "type": "uint256"
        }
      ],
      "name": "workerConfirm",
      "outputs": [],
      "payable": false,
      "stateMutability": "nonpayable",
      "type": "function"
    },
    {
      "constant": false,
      "inputs": [
        {
          "name": "taskId",
          "type": "uint256"
        },
        {
          "name": "_workerId",
          "type": "uint256"
        }
      ],
      "name": "workerClaim",
      "outputs": [
        {
          "name": "",
          "type": "bool"
        }
      ],
      "payable": false,
      "stateMutability": "nonpayable",
      "type": "function"
    },
    {
      "constant": false,
      "inputs": [
        {
          "name": "taskId",
          "type": "uint256"
        },
        {
          "name": "_workerId",
          "type": "uint256"
        }
      ],
      "name": "submitTask",
      "outputs": [],
      "payable": false,
      "stateMutability": "nonpayable",
      "type": "function"
    },
    {
      "constant": false,
      "inputs": [
        {
          "name": "_workerId",
          "type": "uint256"
        },
        {
          "name": "taskId",
          "type": "uint256"
        }
      ],
      "name": "rewardWorker",
      "outputs": [],
      "payable": false,
      "stateMutability": "nonpayable",
      "type": "function"
    },
    {
      "constant": false,
      "inputs": [
        {
          "name": "_requesterId",
          "type": "uint256"
        },
        {
          "name": "taskId",
          "type": "uint256"
        }
      ],
      "name": "acceptSubmission",
      "outputs": [],
      "payable": false,
      "stateMutability": "nonpayable",
      "type": "function"
    },
    {
      "constant": false,
      "inputs": [
        {
          "name": "_requesterId",
          "type": "uint256"
        },
        {
          "name": "taskId",
          "type": "uint256"
        }
      ],
      "name": "rejectSubmission",
      "outputs": [],
      "payable": false,
      "stateMutability": "nonpayable",
      "type": "function"
    },
    {
      "constant": true,
      "inputs": [],
      "name": "displayPendingTasks",
      "outputs": [
        {
          "name": "",
          "type": "uint256[]"
        }
      ],
      "payable": false,
      "stateMutability": "view",
      "type": "function"
    }
  ],
  "bytecode": "0x6060604052341561000f57600080fd5b61196f8061001e6000396000f3006060604052600436106100f1576000357c0100000000000000000000000000000000000000000000000000000000900463ffffffff16806309c06841146100f657806333b4bf0714610159578063546fe3c5146101c35780635b63cd59146101f85780635e1a6c171461021b57806368dea23c146103365780636a7f2e7e1461036d5780638be13bd6146103995780638d9776721461044d57806399314117146104b3578063ab526d2c146104f7578063b1804ffb146105ab578063cabddbb3146105d7578063d866164d14610603578063f1a22dc21461062f578063f7cbff0b1461075d578063fdb0300c146107c0575b600080fd5b341561010157600080fd5b61011760048080359060200190919050506107ec565b604051808273ffffffffffffffffffffffffffffffffffffffff1673ffffffffffffffffffffffffffffffffffffffff16815260200191505060405180910390f35b341561016457600080fd5b61016c61081f565b6040518080602001828103825283818151815260200191508051906020019060200280838360005b838110156101af578082015181840152602081019050610194565b505050509050019250505060405180910390f35b34156101ce57600080fd5b6101f660048080359060200190919080359060200190919080359060200190919050506108a0565b005b341561020357600080fd5b610219600480803590602001909190505061098f565b005b341561022657600080fd5b61023c6004808035906020019091905050610ae4565b6040518080602001806020018463ffffffff1663ffffffff168152602001838103835286818151815260200191508051906020019080838360005b83811015610292578082015181840152602081019050610277565b50505050905090810190601f1680156102bf5780820380516001836020036101000a031916815260200191505b50838103825285818151815260200191508051906020019080838360005b838110156102f85780820151818401526020810190506102dd565b50505050905090810190601f1680156103255780820380516001836020036101000a031916815260200191505b509550505050505060405180910390f35b341561034157600080fd5b6103576004808035906020019091905050610c5d565b6040518082815260200191505060405180910390f35b341561037857600080fd5b6103976004808035906020019091908035906020019091905050610c75565b005b34156103a457600080fd5b610437600480803590602001908201803590602001908080601f0160208091040260200160405190810160405280939291908181526020018383808284378201915050505050509190803590602001908201803590602001908080601f01602080910402602001604051908101604052809392919081815260200183838082843782019150505050505091905050610d21565b6040518082815260200191505060405180910390f35b341561045857600080fd5b61046e6004808035906020019091905050610e33565b604051808781526020018663ffffffff1663ffffffff168152602001858152602001848152602001838152602001828152602001965050505050505060405180910390f35b34156104be57600080fd5b6104dd6004808035906020019091908035906020019091905050610e8e565b604051808215151515815260200191505060405180910390f35b341561050257600080fd5b610595600480803590602001908201803590602001908080601f0160208091040260200160405190810160405280939291908181526020018383808284378201915050505050509190803590602001908201803590602001908080601f01602080910402602001604051908101604052809392919081815260200183838082843782019150505050505091905050610fcf565b6040518082815260200191505060405180910390f35b34156105b657600080fd5b6105d5600480803590602001909190803590602001909190505061112f565b005b34156105e257600080fd5b61060160048080359060200190919080359060200190919050506111f8565b005b341561060e57600080fd5b61062d60048080359060200190919080359060200190919050506112ff565b005b341561063a57600080fd5b61065060048080359060200190919050506113ab565b6040518080602001806020018563ffffffff1663ffffffff1681526020018463ffffffff1663ffffffff168152602001838103835287818151815260200191508051906020019080838360005b838110156106b857808201518184015260208101905061069d565b50505050905090810190601f1680156106e55780820380516001836020036101000a031916815260200191505b50838103825286818151815260200191508051906020019080838360005b8381101561071e578082015181840152602081019050610703565b50505050905090810190601f16801561074b5780820380516001836020036101000a031916815260200191505b50965050505050505060405180910390f35b341561076857600080fd5b61077e600480803590602001909190505061153a565b604051808273ffffffffffffffffffffffffffffffffffffffff1673ffffffffffffffffffffffffffffffffffffffff16815260200191505060405180910390f35b34156107cb57600080fd5b6107ea600480803590602001909190803590602001909190505061156d565b005b60046020528060005260406000206000915054906101000a900473ffffffffffffffffffffffffffffffffffffffff1681565b61082761168b565b61082f61168b565b60008060009150600090505b6005805490508110156108975760016008600083815260200190815260200160002054141561088a5780838381518110151561087357fe5b906020019060200201818152505081806001019250505b808060010191505061083b565b82935050505090565b6004600083815260200190815260200160002060009054906101000a900473ffffffffffffffffffffffffffffffffffffffff1673ffffffffffffffffffffffffffffffffffffffff163373ffffffffffffffffffffffffffffffffffffffff1614151561090d57600080fd5b60066000828152602001908152602001600020548314151561092e57600080fd5b6001600860008581526020019081526020016000205414151561095057600080fd5b6003600860008581526020019081526020016000208190555042600960006101000a81548163ffffffff021916908363ffffffff160217905550505050565b60006004600083815260200190815260200160002060009054906101000a900473ffffffffffffffffffffffffffffffffffffffff1673ffffffffffffffffffffffffffffffffffffffff163373ffffffffffffffffffffffffffffffffffffffff161415156109fe57600080fd5b600160058054806001018281610a14919061169f565b9160005260206000209060060201600060c060405190810160405280878152602001620d2f0063ffffffff1681526020016064815260200160328152602001600581526020014263ffffffff1681525090919091506000820151816000015560208201518160010160006101000a81548163ffffffff021916908363ffffffff16021790555060408201518160020155606082015181600301556080820151816004015560a082015181600501555050039050600160086000838152602001908152602001600020819055505050565b600181815481101515610af357fe5b9060005260206000209060030201600091509050806000018054600181600116156101000203166002900480601f016020809104026020016040519081016040528092919081815260200182805460018160011615610100020316600290048015610b9f5780601f10610b7457610100808354040283529160200191610b9f565b820191906000526020600020905b815481529060010190602001808311610b8257829003601f168201915b505050505090806001018054600181600116156101000203166002900480601f016020809104026020016040519081016040528092919081815260200182805460018160011615610100020316600290048015610c3d5780601f10610c1257610100808354040283529160200191610c3d565b820191906000526020600020905b815481529060010190602001808311610c2057829003601f168201915b5050505050908060020160009054906101000a900463ffffffff16905083565b60036020528060005260406000206000915090505481565b6002600082815260200190815260200160002060009054906101000a900473ffffffffffffffffffffffffffffffffffffffff1673ffffffffffffffffffffffffffffffffffffffff163373ffffffffffffffffffffffffffffffffffffffff16141515610ce257600080fd5b60056008600084815260200190815260200160002054141515610d0457600080fd5b600660086000848152602001908152602001600020819055505050565b6000806001808054806001018281610d3991906116d1565b91600052602060002090600302016000606060405190810160405280898152602001888152602001600a63ffffffff1681525090919091506000820151816000019080519060200190610d8d929190611703565b506020820151816001019080519060200190610daa929190611703565b5060408201518160020160006101000a81548163ffffffff021916908363ffffffff1602179055505050039050336004600083815260200190815260200160002060006101000a81548173ffffffffffffffffffffffffffffffffffffffff021916908373ffffffffffffffffffffffffffffffffffffffff1602179055508091505092915050565b600581815481101515610e4257fe5b90600052602060002090600602016000915090508060000154908060010160009054906101000a900463ffffffff16908060020154908060030154908060040154908060050154905086565b6000806002600084815260200190815260200160002060009054906101000a900473ffffffffffffffffffffffffffffffffffffffff1673ffffffffffffffffffffffffffffffffffffffff163373ffffffffffffffffffffffffffffffffffffffff16141515610efe57600080fd5b60036008600086815260200190815260200160002054141515610f2057600080fd5b42905060036008600086815260200190815260200160002054148015610f6b575042600960009054906101000a900463ffffffff1663ffffffff160163ffffffff168163ffffffff16115b15610f92576004600860008681526020019081526020016000208190555060009150610fc8565b82600760008681526020019081526020016000208190555060056008600086815260200190815260200160002081905550600191505b5092915050565b600080600160008054806001018281610fe89190611783565b91600052602060002090600302016000608060405190810160405280898152602001888152602001600063ffffffff168152602001600a63ffffffff1681525090919091506000820151816000019080519060200190611049929190611703565b506020820151816001019080519060200190611066929190611703565b5060408201518160020160006101000a81548163ffffffff021916908363ffffffff16021790555060608201518160020160046101000a81548163ffffffff021916908363ffffffff1602179055505050039050336002600083815260200190815260200160002060006101000a81548173ffffffffffffffffffffffffffffffffffffffff021916908373ffffffffffffffffffffffffffffffffffffffff160217905550600260036000838152602001908152602001600020819055508091505092915050565b6004600083815260200190815260200160002060009054906101000a900473ffffffffffffffffffffffffffffffffffffffff1673ffffffffffffffffffffffffffffffffffffffff163373ffffffffffffffffffffffffffffffffffffffff1614151561119c57600080fd5b600660086000838152602001908152602001600020541415156111be57600080fd5b600760086000838152602001908152602001600020819055506111f460076000838152602001908152602001600020548261156d565b5050565b6002600082815260200190815260200160002060009054906101000a900473ffffffffffffffffffffffffffffffffffffffff1673ffffffffffffffffffffffffffffffffffffffff163373ffffffffffffffffffffffffffffffffffffffff1614151561126557600080fd5b600260036000838152602001908152602001600020541480156112dd575060058281548110151561129257fe5b9060005260206000209060060201600201546000828154811015156112b357fe5b906000526020600020906003020160020160009054906101000a900463ffffffff1663ffffffff16115b156112fb578160066000838152602001908152602001600020819055505b5050565b6004600083815260200190815260200160002060009054906101000a900473ffffffffffffffffffffffffffffffffffffffff1673ffffffffffffffffffffffffffffffffffffffff163373ffffffffffffffffffffffffffffffffffffffff1614151561136c57600080fd5b6006600860008381526020019081526020016000205414151561138e57600080fd5b600160086000838152602001908152602001600020819055505050565b6000818154811015156113ba57fe5b9060005260206000209060030201600091509050806000018054600181600116156101000203166002900480601f0160208091040260200160405190810160405280929190818152602001828054600181600116156101000203166002900480156114665780601f1061143b57610100808354040283529160200191611466565b820191906000526020600020905b81548152906001019060200180831161144957829003601f168201915b505050505090806001018054600181600116156101000203166002900480601f0160208091040260200160405190810160405280929190818152602001828054600181600116156101000203166002900480156115045780601f106114d957610100808354040283529160200191611504565b820191906000526020600020905b8154815290600101906020018083116114e757829003601f168201915b5050505050908060020160009054906101000a900463ffffffff16908060020160049054906101000a900463ffffffff16905084565b60026020528060005260406000206000915054906101000a900473ffffffffffffffffffffffffffffffffffffffff1681565b60058181548110151561157c57fe5b90600052602060002090600602016004015460008381548110151561159d57fe5b906000526020600020906003020160020160048282829054906101000a900463ffffffff160192506101000a81548163ffffffff021916908363ffffffff1602179055506005818154811015156115f057fe5b90600052602060002090600602016003015460008381548110151561161157fe5b906000526020600020906003020160020160008282829054906101000a900463ffffffff160192506101000a81548163ffffffff021916908363ffffffff16021790555060096008600083815260200190815260200160002081905550600260036000848152602001908152602001600020819055505050565b602060405190810160405280600081525090565b8154818355818115116116cc576006028160060283600052602060002091820191016116cb91906117b5565b5b505050565b8154818355818115116116fe576003028160030283600052602060002091820191016116fd9190611813565b5b505050565b828054600181600116156101000203166002900490600052602060002090601f016020900481019282601f1061174457805160ff1916838001178555611772565b82800160010185558215611772579182015b82811115611771578251825591602001919060010190611756565b5b50905061177f9190611869565b5090565b8154818355818115116117b0576003028160030283600052602060002091820191016117af919061188e565b5b505050565b61181091905b8082111561180c576000808201600090556001820160006101000a81549063ffffffff02191690556002820160009055600382016000905560048201600090556005820160009055506006016117bb565b5090565b90565b61186691905b80821115611862576000808201600061183291906118fb565b60018201600061184291906118fb565b6002820160006101000a81549063ffffffff021916905550600301611819565b5090565b90565b61188b91905b8082111561188757600081600090555060010161186f565b5090565b90565b6118f891905b808211156118f457600080820160006118ad91906118fb565b6001820160006118bd91906118fb565b6002820160006101000a81549063ffffffff02191690556002820160046101000a81549063ffffffff021916905550600301611894565b5090565b90565b50805460018160011615610100020316600290046000825580601f106119215750611940565b601f01602090049060005260206000209081019061193f9190611869565b5b505600a165627a7a7230582021af6ce2765c811ac279b3f5f273a647a2eb91102da74be124b377fc4bf204ff0029",
  "source": "pragma solidity ^0.4.21;\n\nimport \"./user.sol\";\n\ncontract Task is User {\n\n    struct Task {\n    uint requesterId;\n    uint32 taskDuration;\n    uint expRequired;\n    uint expAwarded;\n    uint reward;\n    uint postTime;\n    }\n\n    Task[] public tasks;\n\n    //mapping(uint => uint) internal taskToRequester;\n    mapping(uint => uint) internal applyForTask;\n    mapping(uint => uint) internal taskAssignedTo;\n    mapping(uint => uint) internal taskStatus;\n\n    uint32 timeoutBegin;\n\n    // Pending 1\n    // Free 2\n    // Unclaimed 3\n    // Cancelled 4\n    // Claimed 5\n    // Submitted 6\n    // Evaluated 7\n    // Pending 8\n    // Completed 9\n\n    function generateTask(uint _requesterId)  {\n        require(msg.sender == requesterAddress[_requesterId]);\n        uint taskId = tasks.push(Task(_requesterId, 10 days, 100, 50, 5, uint32(now))) - 1;\n        taskStatus[taskId] = 1;\n\n        //new event for the new task\n        //add a ether transaction?\n      }\n\n    function applyTask(uint taskId, uint _workerId)  {\n        require(msg.sender == workerAddress[_workerId]);\n        if(workerStatus[_workerId] == 2 && (workers[_workerId].expPts > tasks[taskId].expRequired)){\n        applyForTask[_workerId] = taskId;}\n    }\n\n    function workerConfirm(uint taskId, uint _requesterId, uint _workerId)  {\n        require(msg.sender == requesterAddress[_requesterId]);\n        require(taskId == applyForTask[_workerId]);\n        require(taskStatus[taskId] == 1);\n        taskStatus[taskId] = 3;\n        timeoutBegin = uint32(now);\n        //define an event stating confirmation of worker.\n    }\n\n    function workerClaim(uint taskId, uint _workerId)  returns(bool){\n\n        require(msg.sender == workerAddress[_workerId]);\n        require(taskStatus[taskId] == 3);\n        uint32 currentTime = uint32(now);\n        if(taskStatus[taskId] == 3 && (currentTime > uint32(timeoutBegin + now))){\n        taskStatus[taskId] = 4;\n        return false;\n        }\n\n        taskAssignedTo[taskId] = _workerId;\n        taskStatus[taskId] = 5;\n        return true;\n\n        //define event stating that the worker has accepted and started working\n    }\n\n    function submitTask(uint taskId, uint _workerId)  {\n\n        require(msg.sender == workerAddress[_workerId]);\n        require(taskStatus[taskId] == 5);\n        taskStatus[taskId] = 6;\n\n        //event update to requester tasks[taskId].requesterId\n    }\n\n\n    function rewardWorker(uint _workerId, uint taskId)  {\n\n        workers[_workerId].accountBalance += uint32(tasks[taskId].reward);\n        workers[_workerId].expPts += uint32(tasks[taskId].expAwarded);\n        taskStatus[taskId] = 9;\n        workerStatus[_workerId] = 2;\n\n\n    }\n\n    function acceptSubmission(uint _requesterId, uint taskId)  {\n\n        require(msg.sender == requesterAddress[_requesterId]);\n        require(taskStatus[taskId] == 6);\n        taskStatus[taskId] = 7;\n        rewardWorker(taskAssignedTo[taskId], taskId);\n\n        //event stating that the task has been completed.\n    }\n\n    function rejectSubmission(uint _requesterId, uint taskId)  {\n\n        require(msg.sender == requesterAddress[_requesterId]);\n        require(taskStatus[taskId] == 6);\n        taskStatus[taskId] = 1;\n\n        //event stating task has been rejected\n        }\n\n\n    function displayPendingTasks()  view returns(uint[]) {\n\n      uint[] memory pendingTasks;\n      uint count = 0;\n      for(uint i=0; i < tasks.length; i++) {\n        if(taskStatus[i] == 1) {\n        pendingTasks[count] = i;\n        count++;\n        }\n      }\n      return pendingTasks;\n    }\n\n //define a function to turn cancelled task to pending\n //define a function to turn pending task to cancelled\n}\n",
  "sourcePath": "/Users/Krishak/Desktop/sih3/contracts/Task.sol",
  "compiler": {
    "name": "solc",
    "version": "0.4.21+commit.dfe3193c.Emscripten.clang"
  },
  "schemaVersion": "2.0.0",
  "updatedAt": "2018-03-31T05:07:01.088Z"
}