{
  "contractName": "User",
  "abi": [
    {
      "constant": true,
      "inputs": [
        {
          "name": "",
          "type": "uint256"
        }
      ],
      "name": "requesterAddress",
      "outputs": [
        {
          "name": "",
          "type": "address"
        }
      ],
      "payable": false,
      "stateMutability": "view",
      "type": "function"
    },
    {
      "constant": true,
      "inputs": [
        {
          "name": "",
          "type": "uint256"
        }
      ],
      "name": "requesters",
      "outputs": [
        {
          "name": "username",
          "type": "string"
        },
        {
          "name": "pwd",
          "type": "string"
        },
        {
          "name": "accountBalance",
          "type": "uint32"
        }
      ],
      "payable": false,
      "stateMutability": "view",
      "type": "function"
    },
    {
      "constant": true,
      "inputs": [
        {
          "name": "",
          "type": "uint256"
        }
      ],
      "name": "workerStatus",
      "outputs": [
        {
          "name": "",
          "type": "uint256"
        }
      ],
      "payable": false,
      "stateMutability": "view",
      "type": "function"
    },
    {
      "constant": true,
      "inputs": [
        {
          "name": "",
          "type": "uint256"
        }
      ],
      "name": "workers",
      "outputs": [
        {
          "name": "username",
          "type": "string"
        },
        {
          "name": "pwd",
          "type": "string"
        },
        {
          "name": "expPts",
          "type": "uint32"
        },
        {
          "name": "accountBalance",
          "type": "uint32"
        }
      ],
      "payable": false,
      "stateMutability": "view",
      "type": "function"
    },
    {
      "constant": true,
      "inputs": [
        {
          "name": "",
          "type": "uint256"
        }
      ],
      "name": "workerAddress",
      "outputs": [
        {
          "name": "",
          "type": "address"
        }
      ],
      "payable": false,
      "stateMutability": "view",
      "type": "function"
    },
    {
      "constant": false,
      "inputs": [
        {
          "name": "_name",
          "type": "string"
        },
        {
          "name": "_pwd",
          "type": "string"
        }
      ],
      "name": "_createWorker",
      "outputs": [
        {
          "name": "",
          "type": "uint256"
        }
      ],
      "payable": false,
      "stateMutability": "nonpayable",
      "type": "function"
    },
    {
      "constant": false,
      "inputs": [
        {
          "name": "_name",
          "type": "string"
        },
        {
          "name": "_pwd",
          "type": "string"
        }
      ],
      "name": "_createRequester",
      "outputs": [
        {
          "name": "",
          "type": "uint256"
        }
      ],
      "payable": false,
      "stateMutability": "nonpayable",
      "type": "function"
    }
  ],
  "bytecode": "0x6060604052341561000f57600080fd5b610d6e8061001e6000396000f300606060405260043610610083576000357c0100000000000000000000000000000000000000000000000000000000900463ffffffff16806309c06841146100885780635e1a6c17146100eb57806368dea23c146102065780638be13bd61461023d578063ab526d2c146102f1578063f1a22dc2146103a5578063f7cbff0b146104d3575b600080fd5b341561009357600080fd5b6100a96004808035906020019091905050610536565b604051808273ffffffffffffffffffffffffffffffffffffffff1673ffffffffffffffffffffffffffffffffffffffff16815260200191505060405180910390f35b34156100f657600080fd5b61010c6004808035906020019091905050610569565b6040518080602001806020018463ffffffff1663ffffffff168152602001838103835286818151815260200191508051906020019080838360005b83811015610162578082015181840152602081019050610147565b50505050905090810190601f16801561018f5780820380516001836020036101000a031916815260200191505b50838103825285818151815260200191508051906020019080838360005b838110156101c85780820151818401526020810190506101ad565b50505050905090810190601f1680156101f55780820380516001836020036101000a031916815260200191505b509550505050505060405180910390f35b341561021157600080fd5b61022760048080359060200190919050506106e2565b6040518082815260200191505060405180910390f35b341561024857600080fd5b6102db600480803590602001908201803590602001908080601f0160208091040260200160405190810160405280939291908181526020018383808284378201915050505050509190803590602001908201803590602001908080601f016020809104026020016040519081016040528093929190818152602001838380828437820191505050505050919050506106fa565b6040518082815260200191505060405180910390f35b34156102fc57600080fd5b61038f600480803590602001908201803590602001908080601f0160208091040260200160405190810160405280939291908181526020018383808284378201915050505050509190803590602001908201803590602001908080601f0160208091040260200160405190810160405280939291908181526020018383808284378201915050505050509190505061080c565b6040518082815260200191505060405180910390f35b34156103b057600080fd5b6103c6600480803590602001909190505061096c565b6040518080602001806020018563ffffffff1663ffffffff1681526020018463ffffffff1663ffffffff168152602001838103835287818151815260200191508051906020019080838360005b8381101561042e578082015181840152602081019050610413565b50505050905090810190601f16801561045b5780820380516001836020036101000a031916815260200191505b50838103825286818151815260200191508051906020019080838360005b83811015610494578082015181840152602081019050610479565b50505050905090810190601f1680156104c15780820380516001836020036101000a031916815260200191505b50965050505050505060405180910390f35b34156104de57600080fd5b6104f46004808035906020019091905050610afb565b604051808273ffffffffffffffffffffffffffffffffffffffff1673ffffffffffffffffffffffffffffffffffffffff16815260200191505060405180910390f35b60046020528060005260406000206000915054906101000a900473ffffffffffffffffffffffffffffffffffffffff1681565b60018181548110151561057857fe5b9060005260206000209060030201600091509050806000018054600181600116156101000203166002900480601f0160208091040260200160405190810160405280929190818152602001828054600181600116156101000203166002900480156106245780601f106105f957610100808354040283529160200191610624565b820191906000526020600020905b81548152906001019060200180831161060757829003601f168201915b505050505090806001018054600181600116156101000203166002900480601f0160208091040260200160405190810160405280929190818152602001828054600181600116156101000203166002900480156106c25780601f10610697576101008083540402835291602001916106c2565b820191906000526020600020905b8154815290600101906020018083116106a557829003601f168201915b5050505050908060020160009054906101000a900463ffffffff16905083565b60036020528060005260406000206000915090505481565b60008060018080548060010182816107129190610b2e565b91600052602060002090600302016000606060405190810160405280898152602001888152602001600a63ffffffff1681525090919091506000820151816000019080519060200190610766929190610b60565b506020820151816001019080519060200190610783929190610b60565b5060408201518160020160006101000a81548163ffffffff021916908363ffffffff1602179055505050039050336004600083815260200190815260200160002060006101000a81548173ffffffffffffffffffffffffffffffffffffffff021916908373ffffffffffffffffffffffffffffffffffffffff1602179055508091505092915050565b6000806001600080548060010182816108259190610be0565b91600052602060002090600302016000608060405190810160405280898152602001888152602001600063ffffffff168152602001600a63ffffffff1681525090919091506000820151816000019080519060200190610886929190610b60565b5060208201518160010190805190602001906108a3929190610b60565b5060408201518160020160006101000a81548163ffffffff021916908363ffffffff16021790555060608201518160020160046101000a81548163ffffffff021916908363ffffffff1602179055505050039050336002600083815260200190815260200160002060006101000a81548173ffffffffffffffffffffffffffffffffffffffff021916908373ffffffffffffffffffffffffffffffffffffffff160217905550600260036000838152602001908152602001600020819055508091505092915050565b60008181548110151561097b57fe5b9060005260206000209060030201600091509050806000018054600181600116156101000203166002900480601f016020809104026020016040519081016040528092919081815260200182805460018160011615610100020316600290048015610a275780601f106109fc57610100808354040283529160200191610a27565b820191906000526020600020905b815481529060010190602001808311610a0a57829003601f168201915b505050505090806001018054600181600116156101000203166002900480601f016020809104026020016040519081016040528092919081815260200182805460018160011615610100020316600290048015610ac55780601f10610a9a57610100808354040283529160200191610ac5565b820191906000526020600020905b815481529060010190602001808311610aa857829003601f168201915b5050505050908060020160009054906101000a900463ffffffff16908060020160049054906101000a900463ffffffff16905084565b60026020528060005260406000206000915054906101000a900473ffffffffffffffffffffffffffffffffffffffff1681565b815481835581811511610b5b57600302816003028360005260206000209182019101610b5a9190610c12565b5b505050565b828054600181600116156101000203166002900490600052602060002090601f016020900481019282601f10610ba157805160ff1916838001178555610bcf565b82800160010185558215610bcf579182015b82811115610bce578251825591602001919060010190610bb3565b5b509050610bdc9190610c68565b5090565b815481835581811511610c0d57600302816003028360005260206000209182019101610c0c9190610c8d565b5b505050565b610c6591905b80821115610c615760008082016000610c319190610cfa565b600182016000610c419190610cfa565b6002820160006101000a81549063ffffffff021916905550600301610c18565b5090565b90565b610c8a91905b80821115610c86576000816000905550600101610c6e565b5090565b90565b610cf791905b80821115610cf35760008082016000610cac9190610cfa565b600182016000610cbc9190610cfa565b6002820160006101000a81549063ffffffff02191690556002820160046101000a81549063ffffffff021916905550600301610c93565b5090565b90565b50805460018160011615610100020316600290046000825580601f10610d205750610d3f565b601f016020900490600052602060002090810190610d3e9190610c68565b5b505600a165627a7a7230582099b1a02f41babc9bb6ecc87ffb02bc23a8a5df1ec398d7158d9c6dd5979376010029",
  "source": "pragma solidity ^0.4.21;\n\ncontract User {\n\n//event newWorker(uint userId, string username, uint exp_pts);\n//event newRequester(uint userId, string username);\n\nstruct worker {\n\nstring username;\nstring pwd;\nuint32 expPts;\nuint32 accountBalance;\n}\n\nstruct requester {\n\nstring username;\nstring pwd;\nuint32 accountBalance;\n}\n\n\nworker[] public workers;\nrequester[] public requesters;\n\nmapping (uint => address) public workerAddress;\nmapping(uint => uint) public workerStatus;\nmapping (uint => address) public requesterAddress;\n\nfunction _createWorker(string _name, string _pwd) returns (uint) {\n\nuint id = workers.push(worker(_name, _pwd, 0, 10))-1;\nworkerAddress[id] = msg.sender;\nworkerStatus[id] = 2;\n\nreturn id;\n//newWorker(id, _name, 0);\n}\n\nfunction _createRequester(string _name, string _pwd) returns (uint) {\n\nuint id = requesters.push(requester(_name, _pwd, 10))-1;\nrequesterAddress[id] = msg.sender;\n\nreturn id;\n//newRequester(id, _name);\n}\n\n// function _checkAccount() private view returns(){\n// }\n\n// function displayUserStats() private view returns() {\n// }\n\n}\n",
  "sourcePath": "/Users/Krishak/Desktop/sih3/contracts/User.sol",
  "compiler": {
    "name": "solc",
    "version": "0.4.21+commit.dfe3193c.Emscripten.clang"
  },
  "schemaVersion": "2.0.0",
  "updatedAt": "2018-03-31T05:07:05.193Z"
}